{
  "contractName": "InoculationContract",
  "abi": [
    {
      "inputs": [],
      "name": "gas",
      "outputs": [
        {
          "internalType": "uint256",
          "name": "",
          "type": "uint256"
        }
      ],
      "stateMutability": "view",
      "type": "function",
      "constant": true
    },
    {
      "inputs": [],
      "name": "inoculationDateTime",
      "outputs": [
        {
          "internalType": "uint256",
          "name": "",
          "type": "uint256"
        }
      ],
      "stateMutability": "view",
      "type": "function",
      "constant": true
    },
    {
      "inputs": [],
      "name": "inoculationDepartment",
      "outputs": [
        {
          "internalType": "string",
          "name": "",
          "type": "string"
        }
      ],
      "stateMutability": "view",
      "type": "function",
      "constant": true
    },
    {
      "inputs": [],
      "name": "inoculationDoctorName",
      "outputs": [
        {
          "internalType": "string",
          "name": "",
          "type": "string"
        }
      ],
      "stateMutability": "view",
      "type": "function",
      "constant": true
    },
    {
      "inputs": [],
      "name": "inoculationDoctorNumber",
      "outputs": [
        {
          "internalType": "string",
          "name": "",
          "type": "string"
        }
      ],
      "stateMutability": "view",
      "type": "function",
      "constant": true
    },
    {
      "inputs": [],
      "name": "inoculationDose",
      "outputs": [
        {
          "internalType": "string",
          "name": "",
          "type": "string"
        }
      ],
      "stateMutability": "view",
      "type": "function",
      "constant": true
    },
    {
      "inputs": [],
      "name": "inoculationID",
      "outputs": [
        {
          "internalType": "string",
          "name": "",
          "type": "string"
        }
      ],
      "stateMutability": "view",
      "type": "function",
      "constant": true
    },
    {
      "inputs": [],
      "name": "productionBatchNo",
      "outputs": [
        {
          "internalType": "string",
          "name": "",
          "type": "string"
        }
      ],
      "stateMutability": "view",
      "type": "function",
      "constant": true
    },
    {
      "inputs": [],
      "name": "vaccineRecipientAadharNo",
      "outputs": [
        {
          "internalType": "string",
          "name": "",
          "type": "string"
        }
      ],
      "stateMutability": "view",
      "type": "function",
      "constant": true
    },
    {
      "inputs": [],
      "name": "vaccineRecipientAddress",
      "outputs": [
        {
          "internalType": "string",
          "name": "",
          "type": "string"
        }
      ],
      "stateMutability": "view",
      "type": "function",
      "constant": true
    },
    {
      "inputs": [],
      "name": "vaccineRecipientCity",
      "outputs": [
        {
          "internalType": "string",
          "name": "",
          "type": "string"
        }
      ],
      "stateMutability": "view",
      "type": "function",
      "constant": true
    },
    {
      "inputs": [],
      "name": "vaccineRecipientCountry",
      "outputs": [
        {
          "internalType": "string",
          "name": "",
          "type": "string"
        }
      ],
      "stateMutability": "view",
      "type": "function",
      "constant": true
    },
    {
      "inputs": [],
      "name": "vaccineRecipientDob",
      "outputs": [
        {
          "internalType": "uint256",
          "name": "",
          "type": "uint256"
        }
      ],
      "stateMutability": "view",
      "type": "function",
      "constant": true
    },
    {
      "inputs": [],
      "name": "vaccineRecipientName",
      "outputs": [
        {
          "internalType": "string",
          "name": "",
          "type": "string"
        }
      ],
      "stateMutability": "view",
      "type": "function",
      "constant": true
    },
    {
      "inputs": [],
      "name": "vaccineRecipientPincode",
      "outputs": [
        {
          "internalType": "string",
          "name": "",
          "type": "string"
        }
      ],
      "stateMutability": "view",
      "type": "function",
      "constant": true
    },
    {
      "inputs": [],
      "name": "vaccineRecipientState",
      "outputs": [
        {
          "internalType": "string",
          "name": "",
          "type": "string"
        }
      ],
      "stateMutability": "view",
      "type": "function",
      "constant": true
    },
    {
      "inputs": [],
      "name": "check_strict",
      "outputs": [],
      "stateMutability": "nonpayable",
      "type": "function"
    },
    {
      "inputs": [],
      "name": "check_non_strict",
      "outputs": [],
      "stateMutability": "nonpayable",
      "type": "function"
    },
    {
      "inputs": [
        {
          "internalType": "uint256",
          "name": "x",
          "type": "uint256"
        }
      ],
      "name": "calculate_gas_1",
      "outputs": [],
      "stateMutability": "nonpayable",
      "type": "function"
    },
    {
      "inputs": [
        {
          "internalType": "uint256",
          "name": "x",
          "type": "uint256"
        }
      ],
      "name": "calculate_gas_2",
      "outputs": [],
      "stateMutability": "nonpayable",
      "type": "function"
    },
    {
      "inputs": [
        {
          "internalType": "string",
          "name": "_inoculationID",
          "type": "string"
        },
        {
          "internalType": "string",
          "name": "_productionBatchNo",
          "type": "string"
        },
        {
          "internalType": "string",
          "name": "_vaccineRecipientName",
          "type": "string"
        },
        {
          "internalType": "string",
          "name": "_inoculationDose",
          "type": "string"
        },
        {
          "internalType": "string",
          "name": "_inoculationDepartment",
          "type": "string"
        },
        {
          "internalType": "string",
          "name": "_inoculationDoctorName",
          "type": "string"
        },
        {
          "internalType": "string",
          "name": "_inoculationDoctorNumber",
          "type": "string"
        }
      ],
      "name": "perform_transactions",
      "outputs": [],
      "stateMutability": "nonpayable",
      "type": "function"
    },
    {
      "inputs": [],
      "name": "UseUint",
      "outputs": [
        {
          "internalType": "uint256",
          "name": "",
          "type": "uint256"
        }
      ],
      "stateMutability": "nonpayable",
      "type": "function"
    },
    {
      "inputs": [],
      "name": "UseUInt8",
      "outputs": [
        {
          "internalType": "uint8",
          "name": "",
          "type": "uint8"
        }
      ],
      "stateMutability": "nonpayable",
      "type": "function"
    }
  ],
  "bytecode": "0x60806040526000601060006101000a81548160ff021916908360ff160217905550600060115534801561003157600080fd5b5061143d806100416000396000f3fe608060405234801561001057600080fd5b506004361061014d5760003560e01c8063618aa1f2116100c35780639a2991041161007c5780639a29910414610324578063e0a8513314610342578063e272d38214610360578063e42b46af1461037e578063e6c67e731461039c578063e7115fda146103ba5761014d565b8063618aa1f21461027057806361ff2ddf1461028e5780636ca7c216146102ac5780638ed441bc146102ca57806392be6311146102e857806394758f7e146103065761014d565b806331311de01161011557806331311de0146101d25780633165e9df146101f057806342272711146101fa57806342deaf041461021857806349530ac4146102365780635e4b104b146102525761014d565b806303894585146101525780630f6c5a071461017057806311dd44f61461018e578063190126ac146101aa5780631d4d51cf146101c8575b600080fd5b61015a6103d6565b6040516101679190610e2e565b60405180910390f35b6101786103dc565b6040516101859190610ee2565b60405180910390f35b6101a860048036038101906101a3919061104d565b61046a565b005b6101b2610514565b6040516101bf9190610e2e565b60405180910390f35b6101d061051a565b005b6101da610552565b6040516101e791906111cf565b60405180910390f35b6101f86105cb565b005b610202610602565b60405161020f9190610ee2565b60405180910390f35b610220610690565b60405161022d9190610ee2565b60405180910390f35b610250600480360381019061024b9190611216565b61071e565b005b61025a61075b565b6040516102679190610ee2565b60405180910390f35b6102786107e9565b6040516102859190610ee2565b60405180910390f35b610296610877565b6040516102a39190610ee2565b60405180910390f35b6102b4610905565b6040516102c19190610e2e565b60405180910390f35b6102d261090b565b6040516102df9190610ee2565b60405180910390f35b6102f0610999565b6040516102fd9190610ee2565b60405180910390f35b61030e610a27565b60405161031b9190610e2e565b60405180910390f35b61032c610a70565b6040516103399190610ee2565b60405180910390f35b61034a610afe565b6040516103579190610ee2565b60405180910390f35b610368610b8c565b6040516103759190610ee2565b60405180910390f35b610386610c1a565b6040516103939190610ee2565b60405180910390f35b6103a4610ca8565b6040516103b19190610ee2565b60405180910390f35b6103d460048036038101906103cf9190611216565b610d36565b005b60035481565b600180546103e990611272565b80601f016020809104026020016040519081016040528092919081815260200182805461041590611272565b80156104625780601f1061043757610100808354040283529160200191610462565b820191906000526020600020905b81548152906001019060200180831161044557829003601f168201915b505050505081565b8660009080519060200190610480929190610d72565b508560019080519060200190610497929190610d72565b5084600290805190602001906104ae929190610d72565b5083600b90805190602001906104c5929190610d72565b5082600c90805190602001906104dc929190610d72565b5081600d90805190602001906104f3929190610d72565b5080600e908051906020019061050a929190610d72565b5050505050505050565b600a5481565b5a600f819055506001670de0b6b3a763ffff101561053757600080fd5b5a600f600082825461054991906112d3565b92505081905550565b6000806032905060005b8160ff168160ff1610156105b4576001601060008282829054906101000a900460ff166105899190611307565b92506101000a81548160ff021916908360ff16021790555080806105ac9061133e565b91505061055c565b50601060009054906101000a900460ff1691505090565b5a600f819055506001670de0b6b3a763ffff116105e757600080fd5b5a600f60008282546105f991906112d3565b92505081905550565b600b805461060f90611272565b80601f016020809104026020016040519081016040528092919081815260200182805461063b90611272565b80156106885780601f1061065d57610100808354040283529160200191610688565b820191906000526020600020905b81548152906001019060200180831161066b57829003601f168201915b505050505081565b6006805461069d90611272565b80601f01602080910402602001604051908101604052809291908181526020018280546106c990611272565b80156107165780601f106106eb57610100808354040283529160200191610716565b820191906000526020600020905b8154815290600101906020018083116106f957829003601f168201915b505050505081565b5a600f819055506000811461073257600080fd5b6001811061073f57600080fd5b5a600f600082825461075191906112d3565b9250508190555050565b6008805461076890611272565b80601f016020809104026020016040519081016040528092919081815260200182805461079490611272565b80156107e15780601f106107b6576101008083540402835291602001916107e1565b820191906000526020600020905b8154815290600101906020018083116107c457829003601f168201915b505050505081565b600980546107f690611272565b80601f016020809104026020016040519081016040528092919081815260200182805461082290611272565b801561086f5780601f106108445761010080835404028352916020019161086f565b820191906000526020600020905b81548152906001019060200180831161085257829003601f168201915b505050505081565b6005805461088490611272565b80601f01602080910402602001604051908101604052809291908181526020018280546108b090611272565b80156108fd5780601f106108d2576101008083540402835291602001916108fd565b820191906000526020600020905b8154815290600101906020018083116108e057829003601f168201915b505050505081565b600f5481565b600e805461091890611272565b80601f016020809104026020016040519081016040528092919081815260200182805461094490611272565b80156109915780601f1061096657610100808354040283529160200191610991565b820191906000526020600020905b81548152906001019060200180831161097457829003601f168201915b505050505081565b600d80546109a690611272565b80601f01602080910402602001604051908101604052809291908181526020018280546109d290611272565b8015610a1f5780601f106109f457610100808354040283529160200191610a1f565b820191906000526020600020905b815481529060010190602001808311610a0257829003601f168201915b505050505081565b6000806032905060005b81811015610a6657600160116000828254610a4c9190611368565b925050819055508080610a5e906113be565b915050610a31565b5060115491505090565b60078054610a7d90611272565b80601f0160208091040260200160405190810160405280929190818152602001828054610aa990611272565b8015610af65780601f10610acb57610100808354040283529160200191610af6565b820191906000526020600020905b815481529060010190602001808311610ad957829003601f168201915b505050505081565b600c8054610b0b90611272565b80601f0160208091040260200160405190810160405280929190818152602001828054610b3790611272565b8015610b845780601f10610b5957610100808354040283529160200191610b84565b820191906000526020600020905b815481529060010190602001808311610b6757829003601f168201915b505050505081565b60028054610b9990611272565b80601f0160208091040260200160405190810160405280929190818152602001828054610bc590611272565b8015610c125780601f10610be757610100808354040283529160200191610c12565b820191906000526020600020905b815481529060010190602001808311610bf557829003601f168201915b505050505081565b60008054610c2790611272565b80601f0160208091040260200160405190810160405280929190818152602001828054610c5390611272565b8015610ca05780601f10610c7557610100808354040283529160200191610ca0565b820191906000526020600020905b815481529060010190602001808311610c8357829003601f168201915b505050505081565b60048054610cb590611272565b80601f0160208091040260200160405190810160405280929190818152602001828054610ce190611272565b8015610d2e5780601f10610d0357610100808354040283529160200191610d2e565b820191906000526020600020905b815481529060010190602001808311610d1157829003601f168201915b505050505081565b5a600f81905550600081148015610d4d5750600181105b610d5657600080fd5b5a600f6000828254610d6891906112d3565b9250508190555050565b828054610d7e90611272565b90600052602060002090601f016020900481019282610da05760008555610de7565b82601f10610db957805160ff1916838001178555610de7565b82800160010185558215610de7579182015b82811115610de6578251825591602001919060010190610dcb565b5b509050610df49190610df8565b5090565b5b80821115610e11576000816000905550600101610df9565b5090565b6000819050919050565b610e2881610e15565b82525050565b6000602082019050610e436000830184610e1f565b92915050565b600081519050919050565b600082825260208201905092915050565b60005b83811015610e83578082015181840152602081019050610e68565b83811115610e92576000848401525b50505050565b6000601f19601f8301169050919050565b6000610eb482610e49565b610ebe8185610e54565b9350610ece818560208601610e65565b610ed781610e98565b840191505092915050565b60006020820190508181036000830152610efc8184610ea9565b905092915050565b6000604051905090565b600080fd5b600080fd5b600080fd5b600080fd5b7f4e487b7100000000000000000000000000000000000000000000000000000000600052604160045260246000fd5b610f5a82610e98565b810181811067ffffffffffffffff82111715610f7957610f78610f22565b5b80604052505050565b6000610f8c610f04565b9050610f988282610f51565b919050565b600067ffffffffffffffff821115610fb857610fb7610f22565b5b610fc182610e98565b9050602081019050919050565b82818337600083830152505050565b6000610ff0610feb84610f9d565b610f82565b90508281526020810184848401111561100c5761100b610f1d565b5b611017848285610fce565b509392505050565b600082601f83011261103457611033610f18565b5b8135611044848260208601610fdd565b91505092915050565b600080600080600080600060e0888a03121561106c5761106b610f0e565b5b600088013567ffffffffffffffff81111561108a57611089610f13565b5b6110968a828b0161101f565b975050602088013567ffffffffffffffff8111156110b7576110b6610f13565b5b6110c38a828b0161101f565b965050604088013567ffffffffffffffff8111156110e4576110e3610f13565b5b6110f08a828b0161101f565b955050606088013567ffffffffffffffff81111561111157611110610f13565b5b61111d8a828b0161101f565b945050608088013567ffffffffffffffff81111561113e5761113d610f13565b5b61114a8a828b0161101f565b93505060a088013567ffffffffffffffff81111561116b5761116a610f13565b5b6111778a828b0161101f565b92505060c088013567ffffffffffffffff81111561119857611197610f13565b5b6111a48a828b0161101f565b91505092959891949750929550565b600060ff82169050919050565b6111c9816111b3565b82525050565b60006020820190506111e460008301846111c0565b92915050565b6111f381610e15565b81146111fe57600080fd5b50565b600081359050611210816111ea565b92915050565b60006020828403121561122c5761122b610f0e565b5b600061123a84828501611201565b91505092915050565b7f4e487b7100000000000000000000000000000000000000000000000000000000600052602260045260246000fd5b6000600282049050600182168061128a57607f821691505b6020821081141561129e5761129d611243565b5b50919050565b7f4e487b7100000000000000000000000000000000000000000000000000000000600052601160045260246000fd5b60006112de82610e15565b91506112e983610e15565b9250828210156112fc576112fb6112a4565b5b828203905092915050565b6000611312826111b3565b915061131d836111b3565b92508260ff03821115611333576113326112a4565b5b828201905092915050565b6000611349826111b3565b915060ff82141561135d5761135c6112a4565b5b600182019050919050565b600061137382610e15565b915061137e83610e15565b9250827fffffffffffffffffffffffffffffffffffffffffffffffffffffffffffffffff038211156113b3576113b26112a4565b5b828201905092915050565b60006113c982610e15565b91507fffffffffffffffffffffffffffffffffffffffffffffffffffffffffffffffff8214156113fc576113fb6112a4565b5b60018201905091905056fea2646970667358221220e09878c97a829a5ff6af3a8bd8d4b0c9e2f7752d021e949e2321d0e44b0c3aa364736f6c634300080a0033",
  "immutableReferences": {},
  "source": "pragma solidity >=0.4.22 <0.9.0;\r\nimport \"./InspectionContract.sol\";\r\n\r\ninterface Vaccine {\r\n\r\n    function totalSupply() external view returns (uint256);\r\n    function balanceOf(address account) external view returns (uint256);\r\n    function transfer(address to, uint256 amount) external returns (bool);\r\n    function allowance(address owner, address spender) external view returns (uint256);\r\n    function approve(address spender, uint256 amount) external returns (bool);\r\n    function transferFrom(address from, address to, uint256 amount) external returns (bool);\r\n}\r\n\r\ncontract InoculationContract {\r\n    string public inoculationID;\r\n\tstring public productionBatchNo;\r\n\tstring public vaccineRecipientName;\r\n\tuint256 public inoculationDateTime;\r\n\tstring public vaccineRecipientAadharNo;\r\n\tstring public vaccineRecipientAddress;\r\n\tstring public vaccineRecipientCity;\r\n\tstring public vaccineRecipientState;\r\n\tstring public vaccineRecipientPincode;\r\n\tstring public vaccineRecipientCountry;\r\n\tuint256 public vaccineRecipientDob;\r\n\tstring public inoculationDose;\r\n\tstring public inoculationDepartment;\r\n\tstring public inoculationDoctorName;\r\n\tstring public inoculationDoctorNumber;\r\n\r\n\t\r\n\tuint256 public gas;\r\n\tfunction check_strict() external {\r\n\t\t\tgas = gasleft();\r\n\t\t\trequire(999999999999999999 > 1);\r\n\t\t\tgas -= gasleft();\r\n\t\t}\r\n\tfunction check_non_strict() external {\r\n\t\t\tgas = gasleft();\r\n\t\t\trequire(999999999999999999 >= 1);\r\n\t\t\tgas -= gasleft();\r\n\t\t}\r\n\tfunction calculate_gas_1(uint x) public {\r\n        gas = gasleft();\r\n        require(x == 0 && x < 1 );\r\n        gas -= gasleft();\r\n    }\r\n\tfunction calculate_gas_2(uint x) public {\r\n\t\t\tgas = gasleft();\r\n\t\t\trequire(x == 0);\r\n\t\t\trequire(x < 1);\r\n\t\t\tgas -= gasleft();\r\n\t\t}\r\n\r\n\t\tfunction perform_transactions(string memory _inoculationID, string memory _productionBatchNo, string memory _vaccineRecipientName,  string memory _inoculationDose, string memory _inoculationDepartment, string memory _inoculationDoctorName, string memory _inoculationDoctorNumber) public{\r\n       inoculationID = _inoculationID;\r\n\t\tproductionBatchNo = _productionBatchNo;\r\n\t\tvaccineRecipientName = _vaccineRecipientName;\r\n\t\tinoculationDose = _inoculationDose;\r\n\t\tinoculationDepartment = _inoculationDepartment;\r\n\t\tinoculationDoctorName = _inoculationDoctorName;\r\n\t\tinoculationDoctorNumber = _inoculationDoctorNumber;\r\n\r\n    }\r\nuint8 resultA = 0;\r\n    uint256 resultB = 0;\r\n\r\n    function UseUint() external returns (uint256) {\r\n        uint256 selectedRange = 50;\r\n        for (uint256 i = 0; i < selectedRange; i++) {\r\n            resultB += 1;\r\n        }\r\n        return resultB;\r\n    }\r\n\r\n    function UseUInt8() external returns (uint8) {\r\n        uint8 selectedRange = 50;\r\n        for (uint8 i = 0; i < selectedRange; i++) {\r\n            resultA += 1;\r\n        }\r\n        return resultA;\r\n    }\r\n\r\n}\r\n",
  "sourcePath": "C:\\Myfinalyearproject\\VaccineProductions\\VaccineProductions-Truffle\\contracts\\InoculationContract.sol",
  "compiler": {
    "name": "solc",
    "version": "0.8.10+commit.fc410830.Emscripten.clang"
  },
  "schemaVersion": "3.4.13",
  "updatedAt": "2023-05-05T11:02:03.129Z",
  "networkType": "ethereum",
  "devdoc": {
    "kind": "dev",
    "methods": {},
    "version": 1
  },
  "userdoc": {
    "kind": "user",
    "methods": {},
    "version": 1
  }
}