{
  "contractName": "PackingContract",
  "abi": [
    {
      "inputs": [],
      "name": "packingBatchNo",
      "outputs": [
        {
          "internalType": "string",
          "name": "",
          "type": "string"
        }
      ],
      "stateMutability": "view",
      "type": "function",
      "constant": true
    },
    {
      "inputs": [],
      "name": "packingID",
      "outputs": [
        {
          "internalType": "string",
          "name": "",
          "type": "string"
        }
      ],
      "stateMutability": "view",
      "type": "function",
      "constant": true
    },
    {
      "inputs": [],
      "name": "packingInchargeID",
      "outputs": [
        {
          "internalType": "string",
          "name": "",
          "type": "string"
        }
      ],
      "stateMutability": "view",
      "type": "function",
      "constant": true
    },
    {
      "inputs": [],
      "name": "packingReviewerID",
      "outputs": [
        {
          "internalType": "string",
          "name": "",
          "type": "string"
        }
      ],
      "stateMutability": "view",
      "type": "function",
      "constant": true
    },
    {
      "inputs": [],
      "name": "productionBatchNo",
      "outputs": [
        {
          "internalType": "string",
          "name": "",
          "type": "string"
        }
      ],
      "stateMutability": "view",
      "type": "function",
      "constant": true
    },
    {
      "inputs": [
        {
          "internalType": "string",
          "name": "_packingID",
          "type": "string"
        },
        {
          "internalType": "string",
          "name": "_productionBatchNo",
          "type": "string"
        },
        {
          "internalType": "string",
          "name": "_packingBatchNo",
          "type": "string"
        },
        {
          "internalType": "string",
          "name": "_packingInchargeID",
          "type": "string"
        },
        {
          "internalType": "string",
          "name": "_packingReviewerID",
          "type": "string"
        }
      ],
      "name": "perform_transactions",
      "outputs": [],
      "stateMutability": "nonpayable",
      "type": "function"
    }
  ],
  "bytecode": "0x608060405234801561001057600080fd5b5061089e806100206000396000f3fe608060405234801561001057600080fd5b50600436106100625760003560e01c80630f6c5a07146100675780633dee74f8146100855780634460f6e2146100a357806361316f70146100c15780637f1591d6146100df578063feada4cf146100fb575b600080fd5b61006f610119565b60405161007c9190610595565b60405180910390f35b61008d6101a7565b60405161009a9190610595565b60405180910390f35b6100ab610235565b6040516100b89190610595565b60405180910390f35b6100c96102c3565b6040516100d69190610595565b60405180910390f35b6100f960048036038101906100f49190610700565b610351565b005b6101036103cb565b6040516101109190610595565b60405180910390f35b6001805461012690610836565b80601f016020809104026020016040519081016040528092919081815260200182805461015290610836565b801561019f5780601f106101745761010080835404028352916020019161019f565b820191906000526020600020905b81548152906001019060200180831161018257829003601f168201915b505050505081565b600480546101b490610836565b80601f01602080910402602001604051908101604052809291908181526020018280546101e090610836565b801561022d5780601f106102025761010080835404028352916020019161022d565b820191906000526020600020905b81548152906001019060200180831161021057829003601f168201915b505050505081565b6002805461024290610836565b80601f016020809104026020016040519081016040528092919081815260200182805461026e90610836565b80156102bb5780601f10610290576101008083540402835291602001916102bb565b820191906000526020600020905b81548152906001019060200180831161029e57829003601f168201915b505050505081565b600380546102d090610836565b80601f01602080910402602001604051908101604052809291908181526020018280546102fc90610836565b80156103495780601f1061031e57610100808354040283529160200191610349565b820191906000526020600020905b81548152906001019060200180831161032c57829003601f168201915b505050505081565b8460009080519060200190610367929190610459565b50836001908051906020019061037e929190610459565b508260029080519060200190610395929190610459565b5081600390805190602001906103ac929190610459565b5080600490805190602001906103c3929190610459565b505050505050565b600080546103d890610836565b80601f016020809104026020016040519081016040528092919081815260200182805461040490610836565b80156104515780601f1061042657610100808354040283529160200191610451565b820191906000526020600020905b81548152906001019060200180831161043457829003601f168201915b505050505081565b82805461046590610836565b90600052602060002090601f01602090048101928261048757600085556104ce565b82601f106104a057805160ff19168380011785556104ce565b828001600101855582156104ce579182015b828111156104cd5782518255916020019190600101906104b2565b5b5090506104db91906104df565b5090565b5b808211156104f85760008160009055506001016104e0565b5090565b600081519050919050565b600082825260208201905092915050565b60005b8381101561053657808201518184015260208101905061051b565b83811115610545576000848401525b50505050565b6000601f19601f8301169050919050565b6000610567826104fc565b6105718185610507565b9350610581818560208601610518565b61058a8161054b565b840191505092915050565b600060208201905081810360008301526105af818461055c565b905092915050565b6000604051905090565b600080fd5b600080fd5b600080fd5b600080fd5b7f4e487b7100000000000000000000000000000000000000000000000000000000600052604160045260246000fd5b61060d8261054b565b810181811067ffffffffffffffff8211171561062c5761062b6105d5565b5b80604052505050565b600061063f6105b7565b905061064b8282610604565b919050565b600067ffffffffffffffff82111561066b5761066a6105d5565b5b6106748261054b565b9050602081019050919050565b82818337600083830152505050565b60006106a361069e84610650565b610635565b9050828152602081018484840111156106bf576106be6105d0565b5b6106ca848285610681565b509392505050565b600082601f8301126106e7576106e66105cb565b5b81356106f7848260208601610690565b91505092915050565b600080600080600060a0868803121561071c5761071b6105c1565b5b600086013567ffffffffffffffff81111561073a576107396105c6565b5b610746888289016106d2565b955050602086013567ffffffffffffffff811115610767576107666105c6565b5b610773888289016106d2565b945050604086013567ffffffffffffffff811115610794576107936105c6565b5b6107a0888289016106d2565b935050606086013567ffffffffffffffff8111156107c1576107c06105c6565b5b6107cd888289016106d2565b925050608086013567ffffffffffffffff8111156107ee576107ed6105c6565b5b6107fa888289016106d2565b9150509295509295909350565b7f4e487b7100000000000000000000000000000000000000000000000000000000600052602260045260246000fd5b6000600282049050600182168061084e57607f821691505b6020821081141561086257610861610807565b5b5091905056fea264697066735822122083bcaeb2fd7ce4ebe677c36c252106bcf0352d2fbd7e49a428eeaa8426e3d90c64736f6c634300080a0033",
  "immutableReferences": {},
  "source": "pragma solidity >=0.4.22 <0.9.0;\r\n    contract PackingContract {\r\n    string public packingID;\r\n\tstring public productionBatchNo;\r\n\tstring public packingBatchNo;\r\n\r\n\tstring public packingInchargeID;\r\n\tstring public packingReviewerID;\r\n\t\r\n    \r\n    function perform_transactions(string memory _packingID, string memory _productionBatchNo, string memory _packingBatchNo,  string memory _packingInchargeID, string memory _packingReviewerID) public{\r\n       packingID = _packingID;\r\n\t\tproductionBatchNo = _productionBatchNo;\r\n\t\tpackingBatchNo = _packingBatchNo;\r\n\r\n\t\tpackingInchargeID = _packingInchargeID;\r\n\t\tpackingReviewerID = _packingReviewerID;\r\n\t\t\r\n    }\r\n        \r\n}\r\n",
  "sourcePath": "C:\\Myfinalyearproject\\VaccineProductions\\VaccineProductions-Truffle\\contracts\\PackingContract.sol",
  "compiler": {
    "name": "solc",
    "version": "0.8.10+commit.fc410830.Emscripten.clang"
  },
  "schemaVersion": "3.4.13",
  "updatedAt": "2023-05-05T11:02:03.990Z",
  "networkType": "ethereum",
  "devdoc": {
    "kind": "dev",
    "methods": {},
    "version": 1
  },
  "userdoc": {
    "kind": "user",
    "methods": {},
    "version": 1
  }
}