{
  "contractName": "PackingReviewerContract",
  "abi": [
    {
      "inputs": [],
      "name": "isActive",
      "outputs": [
        {
          "internalType": "bool",
          "name": "",
          "type": "bool"
        }
      ],
      "stateMutability": "view",
      "type": "function",
      "constant": true
    },
    {
      "inputs": [],
      "name": "packingReviewerID",
      "outputs": [
        {
          "internalType": "string",
          "name": "",
          "type": "string"
        }
      ],
      "stateMutability": "view",
      "type": "function",
      "constant": true
    },
    {
      "inputs": [],
      "name": "packingReviewerName",
      "outputs": [
        {
          "internalType": "string",
          "name": "",
          "type": "string"
        }
      ],
      "stateMutability": "view",
      "type": "function",
      "constant": true
    },
    {
      "inputs": [
        {
          "internalType": "string",
          "name": "_packingReviewerID",
          "type": "string"
        },
        {
          "internalType": "string",
          "name": "_packingReviewerName",
          "type": "string"
        },
        {
          "internalType": "bool",
          "name": "_isActive",
          "type": "bool"
        }
      ],
      "name": "perform_transactions",
      "outputs": [],
      "stateMutability": "nonpayable",
      "type": "function"
    }
  ],
  "bytecode": "0x608060405234801561001057600080fd5b5061066e806100206000396000f3fe608060405234801561001057600080fd5b506004361061004c5760003560e01c806322f3e2d4146100515780633dee74f81461006f578063450fddee1461008d5780636e3ff91c146100a9575b600080fd5b6100596100c7565b6040516100669190610301565b60405180910390f35b6100776100da565b60405161008491906103b5565b60405180910390f35b6100a760048036038101906100a2919061054c565b610168565b005b6100b16101b5565b6040516100be91906103b5565b60405180910390f35b600260009054906101000a900460ff1681565b600080546100e790610606565b80601f016020809104026020016040519081016040528092919081815260200182805461011390610606565b80156101605780601f1061013557610100808354040283529160200191610160565b820191906000526020600020905b81548152906001019060200180831161014357829003601f168201915b505050505081565b826000908051906020019061017e929190610243565b508160019080519060200190610195929190610243565b5080600260006101000a81548160ff021916908315150217905550505050565b600180546101c290610606565b80601f01602080910402602001604051908101604052809291908181526020018280546101ee90610606565b801561023b5780601f106102105761010080835404028352916020019161023b565b820191906000526020600020905b81548152906001019060200180831161021e57829003601f168201915b505050505081565b82805461024f90610606565b90600052602060002090601f01602090048101928261027157600085556102b8565b82601f1061028a57805160ff19168380011785556102b8565b828001600101855582156102b8579182015b828111156102b757825182559160200191906001019061029c565b5b5090506102c591906102c9565b5090565b5b808211156102e25760008160009055506001016102ca565b5090565b60008115159050919050565b6102fb816102e6565b82525050565b600060208201905061031660008301846102f2565b92915050565b600081519050919050565b600082825260208201905092915050565b60005b8381101561035657808201518184015260208101905061033b565b83811115610365576000848401525b50505050565b6000601f19601f8301169050919050565b60006103878261031c565b6103918185610327565b93506103a1818560208601610338565b6103aa8161036b565b840191505092915050565b600060208201905081810360008301526103cf818461037c565b905092915050565b6000604051905090565b600080fd5b600080fd5b600080fd5b600080fd5b7f4e487b7100000000000000000000000000000000000000000000000000000000600052604160045260246000fd5b61042d8261036b565b810181811067ffffffffffffffff8211171561044c5761044b6103f5565b5b80604052505050565b600061045f6103d7565b905061046b8282610424565b919050565b600067ffffffffffffffff82111561048b5761048a6103f5565b5b6104948261036b565b9050602081019050919050565b82818337600083830152505050565b60006104c36104be84610470565b610455565b9050828152602081018484840111156104df576104de6103f0565b5b6104ea8482856104a1565b509392505050565b600082601f830112610507576105066103eb565b5b81356105178482602086016104b0565b91505092915050565b610529816102e6565b811461053457600080fd5b50565b60008135905061054681610520565b92915050565b600080600060608486031215610565576105646103e1565b5b600084013567ffffffffffffffff811115610583576105826103e6565b5b61058f868287016104f2565b935050602084013567ffffffffffffffff8111156105b0576105af6103e6565b5b6105bc868287016104f2565b92505060406105cd86828701610537565b9150509250925092565b7f4e487b7100000000000000000000000000000000000000000000000000000000600052602260045260246000fd5b6000600282049050600182168061061e57607f821691505b60208210811415610632576106316105d7565b5b5091905056fea26469706673582212202183536d828c1b42e76560dc48f5b95f6d84408f2b3ec74cb8976e9f0b48e05464736f6c634300080a0033",
  "immutableReferences": {},
  "source": "pragma solidity >=0.4.22 <0.9.0;\r\n    contract PackingReviewerContract {\r\n    string public packingReviewerID;\r\n\tstring public packingReviewerName;\r\n\tbool public isActive;\r\n\t\r\n    \r\n    function perform_transactions(string memory _packingReviewerID, string memory _packingReviewerName, bool _isActive) public{\r\n       packingReviewerID = _packingReviewerID;\r\n\t\tpackingReviewerName = _packingReviewerName;\r\n\t\tisActive = _isActive;\r\n\t\t\r\n    }\r\n        \r\n}\r\n",
  "sourcePath": "C:\\Myfinalyearproject\\VaccineProductions\\VaccineProductions-Truffle\\contracts\\PackingReviewerContract.sol",
  "compiler": {
    "name": "solc",
    "version": "0.8.10+commit.fc410830.Emscripten.clang"
  },
  "schemaVersion": "3.4.13",
  "updatedAt": "2023-05-05T11:02:04.421Z",
  "networkType": "ethereum",
  "devdoc": {
    "kind": "dev",
    "methods": {},
    "version": 1
  },
  "userdoc": {
    "kind": "user",
    "methods": {},
    "version": 1
  }
}