{
  "contractName": "PackingInChargeContract",
  "abi": [
    {
      "inputs": [],
      "name": "isActive",
      "outputs": [
        {
          "internalType": "bool",
          "name": "",
          "type": "bool"
        }
      ],
      "stateMutability": "view",
      "type": "function",
      "constant": true
    },
    {
      "inputs": [],
      "name": "packingInChargeID",
      "outputs": [
        {
          "internalType": "string",
          "name": "",
          "type": "string"
        }
      ],
      "stateMutability": "view",
      "type": "function",
      "constant": true
    },
    {
      "inputs": [],
      "name": "packingInChargeName",
      "outputs": [
        {
          "internalType": "string",
          "name": "",
          "type": "string"
        }
      ],
      "stateMutability": "view",
      "type": "function",
      "constant": true
    },
    {
      "inputs": [
        {
          "internalType": "string",
          "name": "_packingInChargeID",
          "type": "string"
        },
        {
          "internalType": "string",
          "name": "_packingInChargeName",
          "type": "string"
        },
        {
          "internalType": "bool",
          "name": "_isActive",
          "type": "bool"
        }
      ],
      "name": "perform_transactions",
      "outputs": [],
      "stateMutability": "nonpayable",
      "type": "function"
    }
  ],
  "bytecode": "0x608060405234801561001057600080fd5b5061066e806100206000396000f3fe608060405234801561001057600080fd5b506004361061004c5760003560e01c806322f3e2d414610051578063450fddee1461006f5780636308c40b1461008b57806375ccc2d3146100a9575b600080fd5b6100596100c7565b6040516100669190610301565b60405180910390f35b610089600480360381019061008491906104a2565b6100da565b005b610093610127565b6040516100a091906105b5565b60405180910390f35b6100b16101b5565b6040516100be91906105b5565b60405180910390f35b600260009054906101000a900460ff1681565b82600090805190602001906100f0929190610243565b508160019080519060200190610107929190610243565b5080600260006101000a81548160ff021916908315150217905550505050565b6000805461013490610606565b80601f016020809104026020016040519081016040528092919081815260200182805461016090610606565b80156101ad5780601f10610182576101008083540402835291602001916101ad565b820191906000526020600020905b81548152906001019060200180831161019057829003601f168201915b505050505081565b600180546101c290610606565b80601f01602080910402602001604051908101604052809291908181526020018280546101ee90610606565b801561023b5780601f106102105761010080835404028352916020019161023b565b820191906000526020600020905b81548152906001019060200180831161021e57829003601f168201915b505050505081565b82805461024f90610606565b90600052602060002090601f01602090048101928261027157600085556102b8565b82601f1061028a57805160ff19168380011785556102b8565b828001600101855582156102b8579182015b828111156102b757825182559160200191906001019061029c565b5b5090506102c591906102c9565b5090565b5b808211156102e25760008160009055506001016102ca565b5090565b60008115159050919050565b6102fb816102e6565b82525050565b600060208201905061031660008301846102f2565b92915050565b6000604051905090565b600080fd5b600080fd5b600080fd5b600080fd5b6000601f19601f8301169050919050565b7f4e487b7100000000000000000000000000000000000000000000000000000000600052604160045260246000fd5b6103838261033a565b810181811067ffffffffffffffff821117156103a2576103a161034b565b5b80604052505050565b60006103b561031c565b90506103c1828261037a565b919050565b600067ffffffffffffffff8211156103e1576103e061034b565b5b6103ea8261033a565b9050602081019050919050565b82818337600083830152505050565b6000610419610414846103c6565b6103ab565b90508281526020810184848401111561043557610434610335565b5b6104408482856103f7565b509392505050565b600082601f83011261045d5761045c610330565b5b813561046d848260208601610406565b91505092915050565b61047f816102e6565b811461048a57600080fd5b50565b60008135905061049c81610476565b92915050565b6000806000606084860312156104bb576104ba610326565b5b600084013567ffffffffffffffff8111156104d9576104d861032b565b5b6104e586828701610448565b935050602084013567ffffffffffffffff8111156105065761050561032b565b5b61051286828701610448565b92505060406105238682870161048d565b9150509250925092565b600081519050919050565b600082825260208201905092915050565b60005b8381101561056757808201518184015260208101905061054c565b83811115610576576000848401525b50505050565b60006105878261052d565b6105918185610538565b93506105a1818560208601610549565b6105aa8161033a565b840191505092915050565b600060208201905081810360008301526105cf818461057c565b905092915050565b7f4e487b7100000000000000000000000000000000000000000000000000000000600052602260045260246000fd5b6000600282049050600182168061061e57607f821691505b60208210811415610632576106316105d7565b5b5091905056fea26469706673582212209494d2cff4dc09c2865f85851b2b097955278c010efc414adbd564b0a2f0cdf764736f6c634300080a0033",
  "immutableReferences": {},
  "source": "pragma solidity >=0.4.22 <0.9.0;\r\n    contract PackingInChargeContract {\r\n    string public packingInChargeID;\r\n\tstring public packingInChargeName;\r\n\tbool public isActive;\r\n\t\r\n    \r\n    function perform_transactions(string memory _packingInChargeID, string memory _packingInChargeName, bool _isActive) public{\r\n       packingInChargeID = _packingInChargeID;\r\n\t\tpackingInChargeName = _packingInChargeName;\r\n\t\tisActive = _isActive;\r\n\t\t\r\n    }\r\n        \r\n}\r\n",
  "sourcePath": "C:\\Myfinalyearproject\\VaccineProductions\\VaccineProductions-Truffle\\contracts\\PackingInChargeContract.sol",
  "compiler": {
    "name": "solc",
    "version": "0.8.10+commit.fc410830.Emscripten.clang"
  },
  "schemaVersion": "3.4.13",
  "updatedAt": "2023-05-05T11:02:04.213Z",
  "networkType": "ethereum",
  "devdoc": {
    "kind": "dev",
    "methods": {},
    "version": 1
  },
  "userdoc": {
    "kind": "user",
    "methods": {},
    "version": 1
  }
}