{
  "contractName": "ProductionReviewerContract",
  "abi": [
    {
      "inputs": [],
      "name": "isActive",
      "outputs": [
        {
          "internalType": "bool",
          "name": "",
          "type": "bool"
        }
      ],
      "stateMutability": "view",
      "type": "function",
      "constant": true
    },
    {
      "inputs": [],
      "name": "productionReviewerID",
      "outputs": [
        {
          "internalType": "string",
          "name": "",
          "type": "string"
        }
      ],
      "stateMutability": "view",
      "type": "function",
      "constant": true
    },
    {
      "inputs": [],
      "name": "productionReviewerName",
      "outputs": [
        {
          "internalType": "string",
          "name": "",
          "type": "string"
        }
      ],
      "stateMutability": "view",
      "type": "function",
      "constant": true
    },
    {
      "inputs": [
        {
          "internalType": "string",
          "name": "_productionReviewerID",
          "type": "string"
        },
        {
          "internalType": "string",
          "name": "_productionReviewerName",
          "type": "string"
        },
        {
          "internalType": "bool",
          "name": "_isActive",
          "type": "bool"
        }
      ],
      "name": "perform_transactions",
      "outputs": [],
      "stateMutability": "nonpayable",
      "type": "function"
    }
  ],
  "bytecode": "0x608060405234801561001057600080fd5b5061066e806100206000396000f3fe608060405234801561001057600080fd5b506004361061004c5760003560e01c80631866f7121461005157806322f3e2d41461006f578063450fddee1461008d578063c8fa4a28146100a9575b600080fd5b6100596100c7565b604051610066919061037f565b60405180910390f35b610077610155565b60405161008491906103bc565b60405180910390f35b6100a760048036038101906100a2919061054c565b610168565b005b6100b16101b5565b6040516100be919061037f565b60405180910390f35b600080546100d490610606565b80601f016020809104026020016040519081016040528092919081815260200182805461010090610606565b801561014d5780601f106101225761010080835404028352916020019161014d565b820191906000526020600020905b81548152906001019060200180831161013057829003601f168201915b505050505081565b600260009054906101000a900460ff1681565b826000908051906020019061017e929190610243565b508160019080519060200190610195929190610243565b5080600260006101000a81548160ff021916908315150217905550505050565b600180546101c290610606565b80601f01602080910402602001604051908101604052809291908181526020018280546101ee90610606565b801561023b5780601f106102105761010080835404028352916020019161023b565b820191906000526020600020905b81548152906001019060200180831161021e57829003601f168201915b505050505081565b82805461024f90610606565b90600052602060002090601f01602090048101928261027157600085556102b8565b82601f1061028a57805160ff19168380011785556102b8565b828001600101855582156102b8579182015b828111156102b757825182559160200191906001019061029c565b5b5090506102c591906102c9565b5090565b5b808211156102e25760008160009055506001016102ca565b5090565b600081519050919050565b600082825260208201905092915050565b60005b83811015610320578082015181840152602081019050610305565b8381111561032f576000848401525b50505050565b6000601f19601f8301169050919050565b6000610351826102e6565b61035b81856102f1565b935061036b818560208601610302565b61037481610335565b840191505092915050565b600060208201905081810360008301526103998184610346565b905092915050565b60008115159050919050565b6103b6816103a1565b82525050565b60006020820190506103d160008301846103ad565b92915050565b6000604051905090565b600080fd5b600080fd5b600080fd5b600080fd5b7f4e487b7100000000000000000000000000000000000000000000000000000000600052604160045260246000fd5b61042d82610335565b810181811067ffffffffffffffff8211171561044c5761044b6103f5565b5b80604052505050565b600061045f6103d7565b905061046b8282610424565b919050565b600067ffffffffffffffff82111561048b5761048a6103f5565b5b61049482610335565b9050602081019050919050565b82818337600083830152505050565b60006104c36104be84610470565b610455565b9050828152602081018484840111156104df576104de6103f0565b5b6104ea8482856104a1565b509392505050565b600082601f830112610507576105066103eb565b5b81356105178482602086016104b0565b91505092915050565b610529816103a1565b811461053457600080fd5b50565b60008135905061054681610520565b92915050565b600080600060608486031215610565576105646103e1565b5b600084013567ffffffffffffffff811115610583576105826103e6565b5b61058f868287016104f2565b935050602084013567ffffffffffffffff8111156105b0576105af6103e6565b5b6105bc868287016104f2565b92505060406105cd86828701610537565b9150509250925092565b7f4e487b7100000000000000000000000000000000000000000000000000000000600052602260045260246000fd5b6000600282049050600182168061061e57607f821691505b60208210811415610632576106316105d7565b5b5091905056fea26469706673582212209602bec478837cbe13a7a6bb1eca914aab062d052108e0c9079c9251d278f16c64736f6c634300080a0033",
  "immutableReferences": {},
  "source": "pragma solidity >=0.4.22 <0.9.0;\r\n    contract ProductionReviewerContract {\r\n    string public productionReviewerID;\r\n\tstring public productionReviewerName;\r\n\tbool public isActive;\r\n\t\r\n    \r\n    function perform_transactions(string memory _productionReviewerID, string memory _productionReviewerName, bool _isActive) public{\r\n       productionReviewerID = _productionReviewerID;\r\n\t\tproductionReviewerName = _productionReviewerName;\r\n\t\tisActive = _isActive;\r\n\t\t\r\n    }\r\n        \r\n}\r\n",
  "sourcePath": "C:\\Myfinalyearproject\\VaccineProductions\\VaccineProductions-Truffle\\contracts\\ProductionReviewerContract.sol",
  "compiler": {
    "name": "solc",
    "version": "0.8.10+commit.fc410830.Emscripten.clang"
  },
  "schemaVersion": "3.4.13",
  "updatedAt": "2023-05-05T11:02:05.065Z",
  "networkType": "ethereum",
  "devdoc": {
    "kind": "dev",
    "methods": {},
    "version": 1
  },
  "userdoc": {
    "kind": "user",
    "methods": {},
    "version": 1
  }
}