{
  "contractName": "ProductionContract",
  "abi": [
    {
      "inputs": [],
      "name": "companyName",
      "outputs": [
        {
          "internalType": "string",
          "name": "",
          "type": "string"
        }
      ],
      "stateMutability": "view",
      "type": "function",
      "constant": true
    },
    {
      "inputs": [],
      "name": "productionBatchNo",
      "outputs": [
        {
          "internalType": "string",
          "name": "",
          "type": "string"
        }
      ],
      "stateMutability": "view",
      "type": "function",
      "constant": true
    },
    {
      "inputs": [],
      "name": "productionID",
      "outputs": [
        {
          "internalType": "string",
          "name": "",
          "type": "string"
        }
      ],
      "stateMutability": "view",
      "type": "function",
      "constant": true
    },
    {
      "inputs": [],
      "name": "vaccineName",
      "outputs": [
        {
          "internalType": "string",
          "name": "",
          "type": "string"
        }
      ],
      "stateMutability": "view",
      "type": "function",
      "constant": true
    },
    {
      "inputs": [
        {
          "internalType": "string",
          "name": "_productionID",
          "type": "string"
        },
        {
          "internalType": "string",
          "name": "_companyName",
          "type": "string"
        },
        {
          "internalType": "string",
          "name": "_vaccineName",
          "type": "string"
        },
        {
          "internalType": "string",
          "name": "_productionBatchNo",
          "type": "string"
        }
      ],
      "name": "perform_transactions",
      "outputs": [],
      "stateMutability": "nonpayable",
      "type": "function"
    }
  ],
  "bytecode": "0x608060405234801561001057600080fd5b5061079f806100206000396000f3fe608060405234801561001057600080fd5b50600436106100575760003560e01c80630cf1a70e1461005c5780630f6c5a071461007a578063b6af1f8814610098578063b85d2503146100b6578063f5ec2eed146100d2575b600080fd5b6100646100f0565b60405161007191906104c6565b60405180910390f35b61008261017e565b60405161008f91906104c6565b60405180910390f35b6100a061020c565b6040516100ad91906104c6565b60405180910390f35b6100d060048036038101906100cb9190610631565b61029a565b005b6100da6102fc565b6040516100e791906104c6565b60405180910390f35b600080546100fd90610737565b80601f016020809104026020016040519081016040528092919081815260200182805461012990610737565b80156101765780601f1061014b57610100808354040283529160200191610176565b820191906000526020600020905b81548152906001019060200180831161015957829003601f168201915b505050505081565b6003805461018b90610737565b80601f01602080910402602001604051908101604052809291908181526020018280546101b790610737565b80156102045780601f106101d957610100808354040283529160200191610204565b820191906000526020600020905b8154815290600101906020018083116101e757829003601f168201915b505050505081565b6002805461021990610737565b80601f016020809104026020016040519081016040528092919081815260200182805461024590610737565b80156102925780601f1061026757610100808354040283529160200191610292565b820191906000526020600020905b81548152906001019060200180831161027557829003601f168201915b505050505081565b83600090805190602001906102b092919061038a565b5082600190805190602001906102c792919061038a565b5081600290805190602001906102de92919061038a565b5080600390805190602001906102f592919061038a565b5050505050565b6001805461030990610737565b80601f016020809104026020016040519081016040528092919081815260200182805461033590610737565b80156103825780601f1061035757610100808354040283529160200191610382565b820191906000526020600020905b81548152906001019060200180831161036557829003601f168201915b505050505081565b82805461039690610737565b90600052602060002090601f0160209004810192826103b857600085556103ff565b82601f106103d157805160ff19168380011785556103ff565b828001600101855582156103ff579182015b828111156103fe5782518255916020019190600101906103e3565b5b50905061040c9190610410565b5090565b5b80821115610429576000816000905550600101610411565b5090565b600081519050919050565b600082825260208201905092915050565b60005b8381101561046757808201518184015260208101905061044c565b83811115610476576000848401525b50505050565b6000601f19601f8301169050919050565b60006104988261042d565b6104a28185610438565b93506104b2818560208601610449565b6104bb8161047c565b840191505092915050565b600060208201905081810360008301526104e0818461048d565b905092915050565b6000604051905090565b600080fd5b600080fd5b600080fd5b600080fd5b7f4e487b7100000000000000000000000000000000000000000000000000000000600052604160045260246000fd5b61053e8261047c565b810181811067ffffffffffffffff8211171561055d5761055c610506565b5b80604052505050565b60006105706104e8565b905061057c8282610535565b919050565b600067ffffffffffffffff82111561059c5761059b610506565b5b6105a58261047c565b9050602081019050919050565b82818337600083830152505050565b60006105d46105cf84610581565b610566565b9050828152602081018484840111156105f0576105ef610501565b5b6105fb8482856105b2565b509392505050565b600082601f830112610618576106176104fc565b5b81356106288482602086016105c1565b91505092915050565b6000806000806080858703121561064b5761064a6104f2565b5b600085013567ffffffffffffffff811115610669576106686104f7565b5b61067587828801610603565b945050602085013567ffffffffffffffff811115610696576106956104f7565b5b6106a287828801610603565b935050604085013567ffffffffffffffff8111156106c3576106c26104f7565b5b6106cf87828801610603565b925050606085013567ffffffffffffffff8111156106f0576106ef6104f7565b5b6106fc87828801610603565b91505092959194509250565b7f4e487b7100000000000000000000000000000000000000000000000000000000600052602260045260246000fd5b6000600282049050600182168061074f57607f821691505b6020821081141561076357610762610708565b5b5091905056fea26469706673582212207208ba3baedcfe7f109102b2d07c8b8786a6d5fcca2da3ed49999a0b0cf83d9664736f6c634300080a0033",
  "immutableReferences": {},
  "source": "pragma solidity >=0.4.22 <0.9.0;\r\n    contract ProductionContract {\r\n    string public productionID;\r\n\tstring public companyName;\r\n\tstring public vaccineName;\r\n\tstring public productionBatchNo;\r\n\r\n\t\r\n    \r\n    function perform_transactions(string memory _productionID, string memory _companyName, string memory _vaccineName, string memory _productionBatchNo) public{\r\n       productionID = _productionID;\r\n\t\tcompanyName = _companyName;\r\n\t\tvaccineName = _vaccineName;\r\n\t\tproductionBatchNo = _productionBatchNo;\r\n\r\n\t\t\r\n    }\r\n        \r\n}\r\n",
  "sourcePath": "C:\\Myfinalyearproject\\VaccineProductions\\VaccineProductions-Truffle\\contracts\\ProductionContract.sol",
  "compiler": {
    "name": "solc",
    "version": "0.8.10+commit.fc410830.Emscripten.clang"
  },
  "schemaVersion": "3.4.13",
  "updatedAt": "2023-05-05T11:02:04.644Z",
  "networkType": "ethereum",
  "devdoc": {
    "kind": "dev",
    "methods": {},
    "version": 1
  },
  "userdoc": {
    "kind": "user",
    "methods": {},
    "version": 1
  }
}