{
  "contractName": "RoleContract",
  "abi": [
    {
      "inputs": [],
      "name": "canInoculation",
      "outputs": [
        {
          "internalType": "bool",
          "name": "",
          "type": "bool"
        }
      ],
      "stateMutability": "view",
      "type": "function",
      "constant": true
    },
    {
      "inputs": [],
      "name": "canInspection",
      "outputs": [
        {
          "internalType": "bool",
          "name": "",
          "type": "bool"
        }
      ],
      "stateMutability": "view",
      "type": "function",
      "constant": true
    },
    {
      "inputs": [],
      "name": "canPacking",
      "outputs": [
        {
          "internalType": "bool",
          "name": "",
          "type": "bool"
        }
      ],
      "stateMutability": "view",
      "type": "function",
      "constant": true
    },
    {
      "inputs": [],
      "name": "canProduction",
      "outputs": [
        {
          "internalType": "bool",
          "name": "",
          "type": "bool"
        }
      ],
      "stateMutability": "view",
      "type": "function",
      "constant": true
    },
    {
      "inputs": [],
      "name": "canRole",
      "outputs": [
        {
          "internalType": "bool",
          "name": "",
          "type": "bool"
        }
      ],
      "stateMutability": "view",
      "type": "function",
      "constant": true
    },
    {
      "inputs": [],
      "name": "canUsers",
      "outputs": [
        {
          "internalType": "bool",
          "name": "",
          "type": "bool"
        }
      ],
      "stateMutability": "view",
      "type": "function",
      "constant": true
    },
    {
      "inputs": [],
      "name": "roleID",
      "outputs": [
        {
          "internalType": "int256",
          "name": "",
          "type": "int256"
        }
      ],
      "stateMutability": "view",
      "type": "function",
      "constant": true
    },
    {
      "inputs": [],
      "name": "roleName",
      "outputs": [
        {
          "internalType": "string",
          "name": "",
          "type": "string"
        }
      ],
      "stateMutability": "view",
      "type": "function",
      "constant": true
    },
    {
      "inputs": [
        {
          "internalType": "int256",
          "name": "_roleID",
          "type": "int256"
        },
        {
          "internalType": "string",
          "name": "_roleName",
          "type": "string"
        },
        {
          "internalType": "bool",
          "name": "_canRole",
          "type": "bool"
        },
        {
          "internalType": "bool",
          "name": "_canUsers",
          "type": "bool"
        },
        {
          "internalType": "bool",
          "name": "_canInoculation",
          "type": "bool"
        },
        {
          "internalType": "bool",
          "name": "_canInspection",
          "type": "bool"
        },
        {
          "internalType": "bool",
          "name": "_canPacking",
          "type": "bool"
        },
        {
          "internalType": "bool",
          "name": "_canProduction",
          "type": "bool"
        }
      ],
      "name": "perform_transactions",
      "outputs": [],
      "stateMutability": "nonpayable",
      "type": "function"
    }
  ],
  "bytecode": "0x608060405234801561001057600080fd5b5061083d806100206000396000f3fe608060405234801561001057600080fd5b50600436106100935760003560e01c80637b3f5c44116100665780637b3f5c441461010e5780639e42baf71461012c578063b5075d811461014a578063c5e18b5414610168578063d82d1a681461018657610093565b806311f277b91461009857806312fa3f73146100b45780632a5404f3146100d2578063609f3993146100f0575b600080fd5b6100b260048036038101906100ad91906105d6565b6101a4565b005b6100bc610267565b6040516100c991906106b7565b60405180910390f35b6100da61027a565b6040516100e791906106b7565b60405180910390f35b6100f861028d565b604051610105919061075a565b60405180910390f35b61011661031b565b60405161012391906106b7565b60405180910390f35b61013461032e565b604051610141919061078b565b60405180910390f35b610152610334565b60405161015f91906106b7565b60405180910390f35b610170610347565b60405161017d91906106b7565b60405180910390f35b61018e61035a565b60405161019b91906106b7565b60405180910390f35b8760008190555086600190805190602001906101c192919061036b565b5085600260006101000a81548160ff02191690831515021790555084600260016101000a81548160ff021916908315150217905550836002806101000a81548160ff02191690831515021790555082600260036101000a81548160ff02191690831515021790555081600260046101000a81548160ff02191690831515021790555080600260056101000a81548160ff0219169083151502179055505050505050505050565b600260059054906101000a900460ff1681565b600260039054906101000a900460ff1681565b6001805461029a906107d5565b80601f01602080910402602001604051908101604052809291908181526020018280546102c6906107d5565b80156103135780601f106102e857610100808354040283529160200191610313565b820191906000526020600020905b8154815290600101906020018083116102f657829003601f168201915b505050505081565b600260049054906101000a900460ff1681565b60005481565b600260009054906101000a900460ff1681565b600260019054906101000a900460ff1681565b60028054906101000a900460ff1681565b828054610377906107d5565b90600052602060002090601f01602090048101928261039957600085556103e0565b82601f106103b257805160ff19168380011785556103e0565b828001600101855582156103e0579182015b828111156103df5782518255916020019190600101906103c4565b5b5090506103ed91906103f1565b5090565b5b8082111561040a5760008160009055506001016103f2565b5090565b6000604051905090565b600080fd5b600080fd5b6000819050919050565b61043581610422565b811461044057600080fd5b50565b6000813590506104528161042c565b92915050565b600080fd5b600080fd5b6000601f19601f8301169050919050565b7f4e487b7100000000000000000000000000000000000000000000000000000000600052604160045260246000fd5b6104ab82610462565b810181811067ffffffffffffffff821117156104ca576104c9610473565b5b80604052505050565b60006104dd61040e565b90506104e982826104a2565b919050565b600067ffffffffffffffff82111561050957610508610473565b5b61051282610462565b9050602081019050919050565b82818337600083830152505050565b600061054161053c846104ee565b6104d3565b90508281526020810184848401111561055d5761055c61045d565b5b61056884828561051f565b509392505050565b600082601f83011261058557610584610458565b5b813561059584826020860161052e565b91505092915050565b60008115159050919050565b6105b38161059e565b81146105be57600080fd5b50565b6000813590506105d0816105aa565b92915050565b600080600080600080600080610100898b0312156105f7576105f6610418565b5b60006106058b828c01610443565b985050602089013567ffffffffffffffff8111156106265761062561041d565b5b6106328b828c01610570565b97505060406106438b828c016105c1565b96505060606106548b828c016105c1565b95505060806106658b828c016105c1565b94505060a06106768b828c016105c1565b93505060c06106878b828c016105c1565b92505060e06106988b828c016105c1565b9150509295985092959890939650565b6106b18161059e565b82525050565b60006020820190506106cc60008301846106a8565b92915050565b600081519050919050565b600082825260208201905092915050565b60005b8381101561070c5780820151818401526020810190506106f1565b8381111561071b576000848401525b50505050565b600061072c826106d2565b61073681856106dd565b93506107468185602086016106ee565b61074f81610462565b840191505092915050565b600060208201905081810360008301526107748184610721565b905092915050565b61078581610422565b82525050565b60006020820190506107a0600083018461077c565b92915050565b7f4e487b7100000000000000000000000000000000000000000000000000000000600052602260045260246000fd5b600060028204905060018216806107ed57607f821691505b60208210811415610801576108006107a6565b5b5091905056fea264697066735822122071591e48180af37a8dfaadd49001de8baaf0c555ff579703ac1840eb646714cb64736f6c634300080a0033",
  "immutableReferences": {},
  "source": "pragma solidity >=0.4.22 <0.9.0;\r\n    contract RoleContract {\r\n    int public roleID;\r\n\tstring public roleName;\r\n\tbool public canRole;\r\n\tbool public canUsers;\r\n\tbool public canInoculation;\r\n\tbool public canInspection;\r\n\tbool public canPacking;\r\n\tbool public canProduction;\r\n\r\n\t\r\n    \r\n    function perform_transactions(int _roleID, string memory _roleName, bool _canRole, bool _canUsers, bool _canInoculation, bool _canInspection,  bool _canPacking,  bool _canProduction) public{\r\n       roleID = _roleID;\r\n\t\troleName = _roleName;\r\n\t\tcanRole = _canRole;\r\n\t\tcanUsers = _canUsers;\r\n\t\tcanInoculation = _canInoculation;\r\n\t\tcanInspection = _canInspection;\r\n\r\n\t\tcanPacking = _canPacking;\r\n\r\n\t\tcanProduction = _canProduction;\r\n\r\n\t\t\r\n    }\r\n        \r\n}\r\n",
  "sourcePath": "C:\\Myfinalyearproject\\VaccineProductions\\VaccineProductions-Truffle\\contracts\\RoleContract.sol",
  "compiler": {
    "name": "solc",
    "version": "0.8.10+commit.fc410830.Emscripten.clang"
  },
  "schemaVersion": "3.4.13",
  "updatedAt": "2023-05-05T11:02:05.268Z",
  "networkType": "ethereum",
  "devdoc": {
    "kind": "dev",
    "methods": {},
    "version": 1
  },
  "userdoc": {
    "kind": "user",
    "methods": {},
    "version": 1
  }
}