{
  "contractName": "UsersContract",
  "abi": [
    {
      "inputs": [],
      "name": "userID",
      "outputs": [
        {
          "internalType": "int256",
          "name": "",
          "type": "int256"
        }
      ],
      "stateMutability": "view",
      "type": "function",
      "constant": true
    },
    {
      "inputs": [],
      "name": "userName",
      "outputs": [
        {
          "internalType": "string",
          "name": "",
          "type": "string"
        }
      ],
      "stateMutability": "view",
      "type": "function",
      "constant": true
    },
    {
      "inputs": [
        {
          "internalType": "int256",
          "name": "_userID",
          "type": "int256"
        },
        {
          "internalType": "string",
          "name": "_userName",
          "type": "string"
        }
      ],
      "name": "perform_transactions",
      "outputs": [],
      "stateMutability": "nonpayable",
      "type": "function"
    }
  ],
  "bytecode": "0x608060405234801561001057600080fd5b5061054e806100206000396000f3fe608060405234801561001057600080fd5b50600436106100415760003560e01c80633ffeccfe1461004657806370019b3514610062578063e302418a14610080575b600080fd5b610060600480360381019061005b9190610387565b61009e565b005b61006a6100c0565b604051610077919061046b565b60405180910390f35b61008861014e565b604051610095919061049c565b60405180910390f35b8160008190555080600190805190602001906100bb929190610154565b505050565b600180546100cd906104e6565b80601f01602080910402602001604051908101604052809291908181526020018280546100f9906104e6565b80156101465780601f1061011b57610100808354040283529160200191610146565b820191906000526020600020905b81548152906001019060200180831161012957829003601f168201915b505050505081565b60005481565b828054610160906104e6565b90600052602060002090601f01602090048101928261018257600085556101c9565b82601f1061019b57805160ff19168380011785556101c9565b828001600101855582156101c9579182015b828111156101c85782518255916020019190600101906101ad565b5b5090506101d691906101da565b5090565b5b808211156101f35760008160009055506001016101db565b5090565b6000604051905090565b600080fd5b600080fd5b6000819050919050565b61021e8161020b565b811461022957600080fd5b50565b60008135905061023b81610215565b92915050565b600080fd5b600080fd5b6000601f19601f8301169050919050565b7f4e487b7100000000000000000000000000000000000000000000000000000000600052604160045260246000fd5b6102948261024b565b810181811067ffffffffffffffff821117156102b3576102b261025c565b5b80604052505050565b60006102c66101f7565b90506102d2828261028b565b919050565b600067ffffffffffffffff8211156102f2576102f161025c565b5b6102fb8261024b565b9050602081019050919050565b82818337600083830152505050565b600061032a610325846102d7565b6102bc565b90508281526020810184848401111561034657610345610246565b5b610351848285610308565b509392505050565b600082601f83011261036e5761036d610241565b5b813561037e848260208601610317565b91505092915050565b6000806040838503121561039e5761039d610201565b5b60006103ac8582860161022c565b925050602083013567ffffffffffffffff8111156103cd576103cc610206565b5b6103d985828601610359565b9150509250929050565b600081519050919050565b600082825260208201905092915050565b60005b8381101561041d578082015181840152602081019050610402565b8381111561042c576000848401525b50505050565b600061043d826103e3565b61044781856103ee565b93506104578185602086016103ff565b6104608161024b565b840191505092915050565b600060208201905081810360008301526104858184610432565b905092915050565b6104968161020b565b82525050565b60006020820190506104b1600083018461048d565b92915050565b7f4e487b7100000000000000000000000000000000000000000000000000000000600052602260045260246000fd5b600060028204905060018216806104fe57607f821691505b60208210811415610512576105116104b7565b5b5091905056fea2646970667358221220a4ccc5b44fd2569d935b654590b19397c228d964fedb30ef7f41f485de8b6e3364736f6c634300080a0033",
  "immutableReferences": {},
  "source": "pragma solidity >=0.4.22 <0.9.0;\r\n    contract UsersContract {\r\n    int public userID;\r\n\tstring public userName;\r\n\r\n\t\r\n    \r\n    function perform_transactions(int _userID, string memory _userName) public{\r\n       userID = _userID;\r\n\t\tuserName = _userName;\r\n\r\n\t\t\r\n    }\r\n        \r\n}\r\n",
  "sourcePath": "C:\\Myfinalyearproject\\VaccineProductions\\VaccineProductions-Truffle\\contracts\\UsersContract.sol",
  "compiler": {
    "name": "solc",
    "version": "0.8.10+commit.fc410830.Emscripten.clang"
  },
  "schemaVersion": "3.4.13",
  "updatedAt": "2023-05-05T11:02:05.475Z",
  "networkType": "ethereum",
  "devdoc": {
    "kind": "dev",
    "methods": {},
    "version": 1
  },
  "userdoc": {
    "kind": "user",
    "methods": {},
    "version": 1
  }
}